:1000000026C035C037C133C032C0EAC030C02FC0AF
:100010002EC02DC02CC02BC02AC029C028C0000073
:10002000000036000000000037000000000038002B
:10003000020202020202020202020102040810206D
:100040002004100801020000040000000000112438
:100050001FBECFE5D2E0DEBFCDBF20E0A0E6B0E01E
:1000600001C01D92AA36B207E1F746D131C2C8CF0E
:10007000823089F018F4813051F00895833019F0FE
:10008000843009F008958CB58F7D8CBD08958AB5B4
:100090008F778ABD08958AB58F7DFBCF1F93CF934D
:1000A000DF93282F30E0F901EC5BFF4F8491F901D9
:1000B000E65CFF4FD491F901E05DFF4FC491CC2382
:1000C000A1F0162F8111D4DFEC2FF0E0EE0FFF1F0F
:1000D000E65DFF4FA591B4918FB7F894EC911111A3
:1000E00008C0D095DE23DC938FBFDF91CF911F91A5
:1000F0000895DE2BF8CFCF93DF9390E0FC01E65C10
:10010000FF4F2491805D9F4FFC0184918823D1F0A3
:1001100090E0880F991FFC01EC5DFF4FA591B49111
:10012000FC01E65DFF4FC591D491623071F49FB739
:10013000F8943C91822F809583238C93E8812E2B19
:1001400028839FBFDF91CF9108958FB7F894EC91EA
:100150002E2B2C938FBFF6CFCF93DF93EC0161E072
:1001600081E0C9DF209729F460E081E0DF91CF9141
:1001700095CFCF3FD10511F461E0F7CFE5E4F0E092
:10018000E491E230B9F030F4E13069F0C038D105E3
:100190009CF7EACFE33099F0E430C1F78CB5806288
:1001A0008CBDCBBD04C08AB580688ABDC9BDDF9156
:1001B000CF9108958AB580628ABDC8BDF8CF8CB54D
:1001C00080628CBDCEBDF3CF2CEC37E0615071095D
:1001D0008109910920F0F9013197F1F7F7CF0895DE
:1001E0001F920F920FB60F9211242F933F938F936C
:1001F0009F93AF93BF938091650090916600A0910B
:100200006700B09168003091640026E0230F2D371D
:1002100058F50296A11DB11D2093640080936500DE
:1002200090936600A0936700B0936800809160008F
:1002300090916100A0916200B09163000196A11DB0
:10024000B11D8093600090936100A0936200B09311
:100250006300BF91AF919F918F913F912F910F902C
:100260000FBE0F901F90189529E8230F0396A11D2C
:10027000B11DD2CF1F920F920FB60F9211242F9360
:100280003F934F935F936F937F938F939F93AF931E
:10029000BF93CF93DF93EF93FF93E4E4F0E0849177
:1002A000EAE3F0E0D491E0E3F0E0C491C11116C0BC
:1002B00081E080936900FF91EF91DF91CF91BF9131
:1002C000AF919F918F917F916F915F914F913F91EE
:1002D0002F910F900FBE0F901F9018958111C8DEBF
:1002E000EC2FF0E0EE0FFF1FE25EFF4FA591B491FF
:1002F000EC91ED23E9F2DFCF78948AB582608ABD74
:100300008AB581608ABD83B7826083BF83B781600D
:1003100083BF89B7826089BF80B7826080BF80B7A2
:10032000816080BF329A319A3098379A8CB5806458
:100330008CBD62E080E0DFDE61E081E0DCDE61E078
:1003400082E0D9DE16B880E28BBF81E085BB00E099
:1003500010E080916900882309F4ACC061E082E07C
:100360009DDE6CE271E080E090E02EDF60E082E0F4
:1003700095DE64EF71E080E090E026DF61E082E0EE
:100380008DDE6CE271E080E090E01EDF60E082E0F4
:1003900085DE64EF71E080E090E016DFD0E0C0E041
:1003A000CE01DADE6AE070E080E090E00DDF2196B9
:1003B000C63ED105A9F786E990E0CEDE9AE0E92EA7
:1003C000F12C61E082E06ADE64EF71E080E090E0B1
:1003D000FBDE60E082E062DE64EF71E080E090E0EE
:1003E000F3DE81E0E81AF10861F78FEF90E0B4DE08
:1003F00068EE73E080E090E0E7DE86E990E0ACDE56
:100400008AE0E82EF12C60E081E048DE61E082E0E5
:1004100045DE64EF71E080E090E0D6DE60E082E0EF
:100420003DDE61E081E03ADE64EF71E080E090E083
:10043000CBDE81E0E81AF10831F768E873E180E08B
:1004400090E0C2DE86EE90E087DECE0185DE6AE0D7
:1004500070E080E090E0B8DE2197C130D105A9F7C7
:1004600060E081E01BDE64EF71E080E090E0ACDEF4
:1004700061E082E013DE6CE271E080E090E0A4DEF7
:1004800060E082E00BDE64EF71E080E090E09CDEF3
:1004900061E082E003DE6CE271E080E090E094DEF7
:1004A00060E082E0FBDD64EF71E080E090E08CDEF4
:1004B0001092690085B7806285BF85B7877E8061AD
:1004C00085BF88950115110509F443CF99DD41CF0A
:0404D000F894FFCFCE
:00000001FF
